{
  "contractName": "CuddleToys",
  "abi": [
    {
      "inputs": [],
      "stateMutability": "nonpayable",
      "type": "constructor"
    },
    {
      "anonymous": false,
      "inputs": [
        {
          "indexed": true,
          "internalType": "address",
          "name": "account",
          "type": "address"
        },
        {
          "indexed": true,
          "internalType": "address",
          "name": "operator",
          "type": "address"
        },
        {
          "indexed": false,
          "internalType": "bool",
          "name": "approved",
          "type": "bool"
        }
      ],
      "name": "ApprovalForAll",
      "type": "event"
    },
    {
      "anonymous": false,
      "inputs": [
        {
          "indexed": true,
          "internalType": "address",
          "name": "previousOwner",
          "type": "address"
        },
        {
          "indexed": true,
          "internalType": "address",
          "name": "newOwner",
          "type": "address"
        }
      ],
      "name": "OwnershipTransferred",
      "type": "event"
    },
    {
      "anonymous": false,
      "inputs": [
        {
          "indexed": true,
          "internalType": "address",
          "name": "operator",
          "type": "address"
        },
        {
          "indexed": true,
          "internalType": "address",
          "name": "from",
          "type": "address"
        },
        {
          "indexed": true,
          "internalType": "address",
          "name": "to",
          "type": "address"
        },
        {
          "indexed": false,
          "internalType": "uint256[]",
          "name": "ids",
          "type": "uint256[]"
        },
        {
          "indexed": false,
          "internalType": "uint256[]",
          "name": "values",
          "type": "uint256[]"
        }
      ],
      "name": "TransferBatch",
      "type": "event"
    },
    {
      "anonymous": false,
      "inputs": [
        {
          "indexed": true,
          "internalType": "address",
          "name": "operator",
          "type": "address"
        },
        {
          "indexed": true,
          "internalType": "address",
          "name": "from",
          "type": "address"
        },
        {
          "indexed": true,
          "internalType": "address",
          "name": "to",
          "type": "address"
        },
        {
          "indexed": false,
          "internalType": "uint256",
          "name": "id",
          "type": "uint256"
        },
        {
          "indexed": false,
          "internalType": "uint256",
          "name": "value",
          "type": "uint256"
        }
      ],
      "name": "TransferSingle",
      "type": "event"
    },
    {
      "anonymous": false,
      "inputs": [
        {
          "indexed": false,
          "internalType": "string",
          "name": "value",
          "type": "string"
        },
        {
          "indexed": true,
          "internalType": "uint256",
          "name": "id",
          "type": "uint256"
        }
      ],
      "name": "URI",
      "type": "event"
    },
    {
      "inputs": [],
      "name": "MUEMMIE_WHITE_BIG",
      "outputs": [
        {
          "internalType": "uint256",
          "name": "",
          "type": "uint256"
        }
      ],
      "stateMutability": "view",
      "type": "function",
      "constant": true
    },
    {
      "inputs": [],
      "name": "PIEP_PIEP",
      "outputs": [
        {
          "internalType": "uint256",
          "name": "",
          "type": "uint256"
        }
      ],
      "stateMutability": "view",
      "type": "function",
      "constant": true
    },
    {
      "inputs": [],
      "name": "TOAST",
      "outputs": [
        {
          "internalType": "uint256",
          "name": "",
          "type": "uint256"
        }
      ],
      "stateMutability": "view",
      "type": "function",
      "constant": true
    },
    {
      "inputs": [
        {
          "internalType": "address",
          "name": "account",
          "type": "address"
        },
        {
          "internalType": "uint256",
          "name": "id",
          "type": "uint256"
        }
      ],
      "name": "balanceOf",
      "outputs": [
        {
          "internalType": "uint256",
          "name": "",
          "type": "uint256"
        }
      ],
      "stateMutability": "view",
      "type": "function",
      "constant": true
    },
    {
      "inputs": [
        {
          "internalType": "address[]",
          "name": "accounts",
          "type": "address[]"
        },
        {
          "internalType": "uint256[]",
          "name": "ids",
          "type": "uint256[]"
        }
      ],
      "name": "balanceOfBatch",
      "outputs": [
        {
          "internalType": "uint256[]",
          "name": "",
          "type": "uint256[]"
        }
      ],
      "stateMutability": "view",
      "type": "function",
      "constant": true
    },
    {
      "inputs": [
        {
          "internalType": "address",
          "name": "account",
          "type": "address"
        },
        {
          "internalType": "address",
          "name": "operator",
          "type": "address"
        }
      ],
      "name": "isApprovedForAll",
      "outputs": [
        {
          "internalType": "bool",
          "name": "",
          "type": "bool"
        }
      ],
      "stateMutability": "view",
      "type": "function",
      "constant": true
    },
    {
      "inputs": [],
      "name": "owner",
      "outputs": [
        {
          "internalType": "address",
          "name": "",
          "type": "address"
        }
      ],
      "stateMutability": "view",
      "type": "function",
      "constant": true
    },
    {
      "inputs": [],
      "name": "renounceOwnership",
      "outputs": [],
      "stateMutability": "nonpayable",
      "type": "function"
    },
    {
      "inputs": [
        {
          "internalType": "address",
          "name": "from",
          "type": "address"
        },
        {
          "internalType": "address",
          "name": "to",
          "type": "address"
        },
        {
          "internalType": "uint256[]",
          "name": "ids",
          "type": "uint256[]"
        },
        {
          "internalType": "uint256[]",
          "name": "amounts",
          "type": "uint256[]"
        },
        {
          "internalType": "bytes",
          "name": "data",
          "type": "bytes"
        }
      ],
      "name": "safeBatchTransferFrom",
      "outputs": [],
      "stateMutability": "nonpayable",
      "type": "function"
    },
    {
      "inputs": [
        {
          "internalType": "address",
          "name": "from",
          "type": "address"
        },
        {
          "internalType": "address",
          "name": "to",
          "type": "address"
        },
        {
          "internalType": "uint256",
          "name": "id",
          "type": "uint256"
        },
        {
          "internalType": "uint256",
          "name": "amount",
          "type": "uint256"
        },
        {
          "internalType": "bytes",
          "name": "data",
          "type": "bytes"
        }
      ],
      "name": "safeTransferFrom",
      "outputs": [],
      "stateMutability": "nonpayable",
      "type": "function"
    },
    {
      "inputs": [
        {
          "internalType": "address",
          "name": "operator",
          "type": "address"
        },
        {
          "internalType": "bool",
          "name": "approved",
          "type": "bool"
        }
      ],
      "name": "setApprovalForAll",
      "outputs": [],
      "stateMutability": "nonpayable",
      "type": "function"
    },
    {
      "inputs": [
        {
          "internalType": "bytes4",
          "name": "interfaceId",
          "type": "bytes4"
        }
      ],
      "name": "supportsInterface",
      "outputs": [
        {
          "internalType": "bool",
          "name": "",
          "type": "bool"
        }
      ],
      "stateMutability": "view",
      "type": "function",
      "constant": true
    },
    {
      "inputs": [
        {
          "internalType": "address",
          "name": "newOwner",
          "type": "address"
        }
      ],
      "name": "transferOwnership",
      "outputs": [],
      "stateMutability": "nonpayable",
      "type": "function"
    },
    {
      "inputs": [
        {
          "internalType": "uint256",
          "name": "",
          "type": "uint256"
        }
      ],
      "name": "uri",
      "outputs": [
        {
          "internalType": "string",
          "name": "",
          "type": "string"
        }
      ],
      "stateMutability": "view",
      "type": "function",
      "constant": true
    },
    {
      "inputs": [
        {
          "internalType": "address",
          "name": "account",
          "type": "address"
        },
        {
          "internalType": "uint256",
          "name": "id",
          "type": "uint256"
        },
        {
          "internalType": "uint256",
          "name": "amount",
          "type": "uint256"
        }
      ],
      "name": "mint",
      "outputs": [],
      "stateMutability": "nonpayable",
      "type": "function"
    },
    {
      "inputs": [
        {
          "internalType": "address",
          "name": "account",
          "type": "address"
        },
        {
          "internalType": "uint256",
          "name": "id",
          "type": "uint256"
        },
        {
          "internalType": "uint256",
          "name": "amount",
          "type": "uint256"
        }
      ],
      "name": "burn",
      "outputs": [],
      "stateMutability": "nonpayable",
      "type": "function"
    }
  ],
  "bytecode": "0x60806040523480156200001157600080fd5b506040518060600160405280602d815260200162003f25602d91396200003d81620000d260201b60201c565b506200005e62000052620000ee60201b60201c565b620000f660201b60201c565b62000083336000600160405180602001604052806000815250620001bc60201b60201c565b620000a73360018060405180602001604052806000815250620001bc60201b60201c565b620000cc336002600160405180602001604052806000815250620001bc60201b60201c565b62000d9c565b8060029080519060200190620000ea92919062000617565b5050565b600033905090565b6000600360009054906101000a900473ffffffffffffffffffffffffffffffffffffffff16905081600360006101000a81548173ffffffffffffffffffffffffffffffffffffffff021916908373ffffffffffffffffffffffffffffffffffffffff1602179055508173ffffffffffffffffffffffffffffffffffffffff168173ffffffffffffffffffffffffffffffffffffffff167f8be0079c531659141344cd1fd0a4f28419497f9722a3daafe3b4186f6b6457e060405160405180910390a35050565b600073ffffffffffffffffffffffffffffffffffffffff168473ffffffffffffffffffffffffffffffffffffffff1614156200022f576040517f08c379a000000000000000000000000000000000000000000000000000000000815260040162000226906200074e565b60405180910390fd5b600062000241620000ee60201b60201c565b90506200027a816000876200025c886200038160201b60201c565b6200026d886200038160201b60201c565b876200040260201b60201c565b8260008086815260200190815260200160002060008773ffffffffffffffffffffffffffffffffffffffff1673ffffffffffffffffffffffffffffffffffffffff1681526020019081526020016000206000828254620002db9190620007a9565b925050819055508473ffffffffffffffffffffffffffffffffffffffff16600073ffffffffffffffffffffffffffffffffffffffff168273ffffffffffffffffffffffffffffffffffffffff167fc3d58168c5ae7397731d063d5bbf3d657854427343f4c083240f7aacaa2d0f6287876040516200035b92919062000817565b60405180910390a46200037a816000878787876200040a60201b60201c565b5050505050565b60606000600167ffffffffffffffff811115620003a357620003a262000844565b5b604051908082528060200260200182016040528015620003d25781602001602082028036833780820191505090505b5090508281600081518110620003ed57620003ec62000873565b5b60200260200101818152505080915050919050565b505050505050565b620004368473ffffffffffffffffffffffffffffffffffffffff166200060460201b62000b431760201c565b15620005fc578373ffffffffffffffffffffffffffffffffffffffff1663f23a6e6187878686866040518663ffffffff1660e01b81526004016200047f9594939291906200098b565b6020604051808303816000875af1925050508015620004be57506040513d601f19601f82011682018060405250810190620004bb919062000a5b565b60015b6200057057620004cd62000a9a565b806308c379a01415620005315750620004e562000af5565b80620004f2575062000533565b806040517f08c379a000000000000000000000000000000000000000000000000000000000815260040162000528919062000be3565b60405180910390fd5b505b6040517f08c379a0000000000000000000000000000000000000000000000000000000008152600401620005679062000c7d565b60405180910390fd5b63f23a6e6160e01b7bffffffffffffffffffffffffffffffffffffffffffffffffffffffff1916817bffffffffffffffffffffffffffffffffffffffffffffffffffffffff191614620005fa576040517f08c379a0000000000000000000000000000000000000000000000000000000008152600401620005f19062000d15565b60405180910390fd5b505b505050505050565b600080823b905060008111915050919050565b828054620006259062000d66565b90600052602060002090601f01602090048101928262000649576000855562000695565b82601f106200066457805160ff191683800117855562000695565b8280016001018555821562000695579182015b828111156200069457825182559160200191906001019062000677565b5b509050620006a49190620006a8565b5090565b5b80821115620006c3576000816000905550600101620006a9565b5090565b600082825260208201905092915050565b7f455243313135353a206d696e7420746f20746865207a65726f2061646472657360008201527f7300000000000000000000000000000000000000000000000000000000000000602082015250565b600062000736602183620006c7565b91506200074382620006d8565b604082019050919050565b60006020820190508181036000830152620007698162000727565b9050919050565b6000819050919050565b7f4e487b7100000000000000000000000000000000000000000000000000000000600052601160045260246000fd5b6000620007b68262000770565b9150620007c38362000770565b9250827fffffffffffffffffffffffffffffffffffffffffffffffffffffffffffffffff03821115620007fb57620007fa6200077a565b5b828201905092915050565b620008118162000770565b82525050565b60006040820190506200082e600083018562000806565b6200083d602083018462000806565b9392505050565b7f4e487b7100000000000000000000000000000000000000000000000000000000600052604160045260246000fd5b7f4e487b7100000000000000000000000000000000000000000000000000000000600052603260045260246000fd5b600073ffffffffffffffffffffffffffffffffffffffff82169050919050565b6000620008cf82620008a2565b9050919050565b620008e181620008c2565b82525050565b600081519050919050565b600082825260208201905092915050565b60005b838110156200092357808201518184015260208101905062000906565b8381111562000933576000848401525b50505050565b6000601f19601f8301169050919050565b60006200095782620008e7565b620009638185620008f2565b93506200097581856020860162000903565b620009808162000939565b840191505092915050565b600060a082019050620009a26000830188620008d6565b620009b16020830187620008d6565b620009c0604083018662000806565b620009cf606083018562000806565b8181036080830152620009e381846200094a565b90509695505050505050565b6000604051905090565b600080fd5b60007fffffffff0000000000000000000000000000000000000000000000000000000082169050919050565b62000a3581620009fe565b811462000a4157600080fd5b50565b60008151905062000a558162000a2a565b92915050565b60006020828403121562000a745762000a73620009f9565b5b600062000a848482850162000a44565b91505092915050565b60008160e01c9050919050565b600060033d111562000abc5760046000803e62000ab960005162000a8d565b90505b90565b62000aca8262000939565b810181811067ffffffffffffffff8211171562000aec5762000aeb62000844565b5b80604052505050565b600060443d101562000b075762000b94565b62000b11620009ef565b60043d036004823e80513d602482011167ffffffffffffffff8211171562000b3b57505062000b94565b808201805167ffffffffffffffff81111562000b5b575050505062000b94565b80602083010160043d03850181111562000b7a57505050505062000b94565b62000b8b8260200185018662000abf565b82955050505050505b90565b600081519050919050565b600062000baf8262000b97565b62000bbb8185620006c7565b935062000bcd81856020860162000903565b62000bd88162000939565b840191505092915050565b6000602082019050818103600083015262000bff818462000ba2565b905092915050565b7f455243313135353a207472616e7366657220746f206e6f6e204552433131353560008201527f526563656976657220696d706c656d656e746572000000000000000000000000602082015250565b600062000c65603483620006c7565b915062000c728262000c07565b604082019050919050565b6000602082019050818103600083015262000c988162000c56565b9050919050565b7f455243313135353a204552433131353552656365697665722072656a6563746560008201527f6420746f6b656e73000000000000000000000000000000000000000000000000602082015250565b600062000cfd602883620006c7565b915062000d0a8262000c9f565b604082019050919050565b6000602082019050818103600083015262000d308162000cee565b9050919050565b7f4e487b7100000000000000000000000000000000000000000000000000000000600052602260045260246000fd5b6000600282049050600182168062000d7f57607f821691505b6020821081141562000d965762000d9562000d37565b5b50919050565b6131798062000dac6000396000f3fe608060405234801561001057600080fd5b50600436106100ff5760003560e01c8063715018a611610097578063e985e9c511610066578063e985e9c51461029a578063f242432a146102ca578063f2fde38b146102e6578063f5298aca14610302576100ff565b8063715018a6146102385780638da5cb5b14610242578063a22cb46514610260578063a93f7d5f1461027c576100ff565b80631fa6d509116100d35780631fa6d509146101b05780632eb2c2d6146101ce5780634e1273f4146101ea5780636b10dc561461021a576100ff565b8062fdd58e1461010457806301ffc9a7146101345780630e89341c14610164578063156e29f614610194575b600080fd5b61011e60048036038101906101199190611c1e565b61031e565b60405161012b9190611c6d565b60405180910390f35b61014e60048036038101906101499190611ce0565b6103e7565b60405161015b9190611d28565b60405180910390f35b61017e60048036038101906101799190611d43565b6104c9565b60405161018b9190611e09565b60405180910390f35b6101ae60048036038101906101a99190611e2b565b61055d565b005b6101b86105f9565b6040516101c59190611c6d565b60405180910390f35b6101e860048036038101906101e3919061207b565b6105fe565b005b61020460048036038101906101ff919061220d565b61069f565b6040516102119190612343565b60405180910390f35b6102226107b8565b60405161022f9190611c6d565b60405180910390f35b6102406107bd565b005b61024a610845565b6040516102579190612374565b60405180910390f35b61027a600480360381019061027591906123bb565b61086f565b005b610284610885565b6040516102919190611c6d565b60405180910390f35b6102b460048036038101906102af91906123fb565b61088a565b6040516102c19190611d28565b60405180910390f35b6102e460048036038101906102df919061243b565b61091e565b005b61030060048036038101906102fb91906124d2565b6109bf565b005b61031c60048036038101906103179190611e2b565b610ab7565b005b60008073ffffffffffffffffffffffffffffffffffffffff168373ffffffffffffffffffffffffffffffffffffffff16141561038f576040517f08c379a000000000000000000000000000000000000000000000000000000000815260040161038690612571565b60405180910390fd5b60008083815260200190815260200160002060008473ffffffffffffffffffffffffffffffffffffffff1673ffffffffffffffffffffffffffffffffffffffff16815260200190815260200160002054905092915050565b60007fd9b67a26000000000000000000000000000000000000000000000000000000007bffffffffffffffffffffffffffffffffffffffffffffffffffffffff1916827bffffffffffffffffffffffffffffffffffffffffffffffffffffffff191614806104b257507f0e89341c000000000000000000000000000000000000000000000000000000007bffffffffffffffffffffffffffffffffffffffffffffffffffffffff1916827bffffffffffffffffffffffffffffffffffffffffffffffffffffffff1916145b806104c257506104c182610b56565b5b9050919050565b6060600280546104d8906125c0565b80601f0160208091040260200160405190810160405280929190818152602001828054610504906125c0565b80156105515780601f1061052657610100808354040283529160200191610551565b820191906000526020600020905b81548152906001019060200180831161053457829003601f168201915b50505050509050919050565b610565610bc0565b73ffffffffffffffffffffffffffffffffffffffff16610583610845565b73ffffffffffffffffffffffffffffffffffffffff16146105d9576040517f08c379a00000000000000000000000000000000000000000000000000000000081526004016105d09061263e565b60405180910390fd5b6105f483838360405180602001604052806000815250610bc8565b505050565b600081565b610606610bc0565b73ffffffffffffffffffffffffffffffffffffffff168573ffffffffffffffffffffffffffffffffffffffff16148061064c575061064b85610646610bc0565b61088a565b5b61068b576040517f08c379a0000000000000000000000000000000000000000000000000000000008152600401610682906126d0565b60405180910390fd5b6106988585858585610d5e565b5050505050565b606081518351146106e5576040517f08c379a00000000000000000000000000000000000000000000000000000000081526004016106dc90612762565b60405180910390fd5b6000835167ffffffffffffffff81111561070257610701611e83565b5b6040519080825280602002602001820160405280156107305781602001602082028036833780820191505090505b50905060005b84518110156107ad5761077d85828151811061075557610754612782565b5b60200260200101518583815181106107705761076f612782565b5b602002602001015161031e565b8282815181106107905761078f612782565b5b602002602001018181525050806107a6906127e0565b9050610736565b508091505092915050565b600281565b6107c5610bc0565b73ffffffffffffffffffffffffffffffffffffffff166107e3610845565b73ffffffffffffffffffffffffffffffffffffffff1614610839576040517f08c379a00000000000000000000000000000000000000000000000000000000081526004016108309061263e565b60405180910390fd5b6108436000611072565b565b6000600360009054906101000a900473ffffffffffffffffffffffffffffffffffffffff16905090565b61088161087a610bc0565b8383611138565b5050565b600181565b6000600160008473ffffffffffffffffffffffffffffffffffffffff1673ffffffffffffffffffffffffffffffffffffffff16815260200190815260200160002060008373ffffffffffffffffffffffffffffffffffffffff1673ffffffffffffffffffffffffffffffffffffffff16815260200190815260200160002060009054906101000a900460ff16905092915050565b610926610bc0565b73ffffffffffffffffffffffffffffffffffffffff168573ffffffffffffffffffffffffffffffffffffffff16148061096c575061096b85610966610bc0565b61088a565b5b6109ab576040517f08c379a00000000000000000000000000000000000000000000000000000000081526004016109a29061289b565b60405180910390fd5b6109b885858585856112a5565b5050505050565b6109c7610bc0565b73ffffffffffffffffffffffffffffffffffffffff166109e5610845565b73ffffffffffffffffffffffffffffffffffffffff1614610a3b576040517f08c379a0000000000000000000000000000000000000000000000000000000008152600401610a329061263e565b60405180910390fd5b600073ffffffffffffffffffffffffffffffffffffffff168173ffffffffffffffffffffffffffffffffffffffff161415610aab576040517f08c379a0000000000000000000000000000000000000000000000000000000008152600401610aa29061292d565b60405180910390fd5b610ab481611072565b50565b610abf610bc0565b73ffffffffffffffffffffffffffffffffffffffff16610add610845565b73ffffffffffffffffffffffffffffffffffffffff1614610b33576040517f08c379a0000000000000000000000000000000000000000000000000000000008152600401610b2a9061263e565b60405180910390fd5b610b3e838383611527565b505050565b600080823b905060008111915050919050565b60007f01ffc9a7000000000000000000000000000000000000000000000000000000007bffffffffffffffffffffffffffffffffffffffffffffffffffffffff1916827bffffffffffffffffffffffffffffffffffffffffffffffffffffffff1916149050919050565b600033905090565b600073ffffffffffffffffffffffffffffffffffffffff168473ffffffffffffffffffffffffffffffffffffffff161415610c38576040517f08c379a0000000000000000000000000000000000000000000000000000000008152600401610c2f906129bf565b60405180910390fd5b6000610c42610bc0565b9050610c6381600087610c5488611744565b610c5d88611744565b876117be565b8260008086815260200190815260200160002060008773ffffffffffffffffffffffffffffffffffffffff1673ffffffffffffffffffffffffffffffffffffffff1681526020019081526020016000206000828254610cc291906129df565b925050819055508473ffffffffffffffffffffffffffffffffffffffff16600073ffffffffffffffffffffffffffffffffffffffff168273ffffffffffffffffffffffffffffffffffffffff167fc3d58168c5ae7397731d063d5bbf3d657854427343f4c083240f7aacaa2d0f628787604051610d40929190612a35565b60405180910390a4610d57816000878787876117c6565b5050505050565b8151835114610da2576040517f08c379a0000000000000000000000000000000000000000000000000000000008152600401610d9990612ad0565b60405180910390fd5b600073ffffffffffffffffffffffffffffffffffffffff168473ffffffffffffffffffffffffffffffffffffffff161415610e12576040517f08c379a0000000000000000000000000000000000000000000000000000000008152600401610e0990612b62565b60405180910390fd5b6000610e1c610bc0565b9050610e2c8187878787876117be565b60005b8451811015610fdd576000858281518110610e4d57610e4c612782565b5b602002602001015190506000858381518110610e6c57610e6b612782565b5b60200260200101519050600080600084815260200190815260200160002060008b73ffffffffffffffffffffffffffffffffffffffff1673ffffffffffffffffffffffffffffffffffffffff16815260200190815260200160002054905081811015610f0d576040517f08c379a0000000000000000000000000000000000000000000000000000000008152600401610f0490612bf4565b60405180910390fd5b81810360008085815260200190815260200160002060008c73ffffffffffffffffffffffffffffffffffffffff1673ffffffffffffffffffffffffffffffffffffffff168152602001908152602001600020819055508160008085815260200190815260200160002060008b73ffffffffffffffffffffffffffffffffffffffff1673ffffffffffffffffffffffffffffffffffffffff1681526020019081526020016000206000828254610fc291906129df565b9250508190555050505080610fd6906127e0565b9050610e2f565b508473ffffffffffffffffffffffffffffffffffffffff168673ffffffffffffffffffffffffffffffffffffffff168273ffffffffffffffffffffffffffffffffffffffff167f4a39dc06d4c0dbc64b70af90fd698a233a518aa5d07e595d983b8c0526c8f7fb8787604051611054929190612c14565b60405180910390a461106a81878787878761199e565b505050505050565b6000600360009054906101000a900473ffffffffffffffffffffffffffffffffffffffff16905081600360006101000a81548173ffffffffffffffffffffffffffffffffffffffff021916908373ffffffffffffffffffffffffffffffffffffffff1602179055508173ffffffffffffffffffffffffffffffffffffffff168173ffffffffffffffffffffffffffffffffffffffff167f8be0079c531659141344cd1fd0a4f28419497f9722a3daafe3b4186f6b6457e060405160405180910390a35050565b8173ffffffffffffffffffffffffffffffffffffffff168373ffffffffffffffffffffffffffffffffffffffff1614156111a7576040517f08c379a000000000000000000000000000000000000000000000000000000000815260040161119e90612cbd565b60405180910390fd5b80600160008573ffffffffffffffffffffffffffffffffffffffff1673ffffffffffffffffffffffffffffffffffffffff16815260200190815260200160002060008473ffffffffffffffffffffffffffffffffffffffff1673ffffffffffffffffffffffffffffffffffffffff16815260200190815260200160002060006101000a81548160ff0219169083151502179055508173ffffffffffffffffffffffffffffffffffffffff168373ffffffffffffffffffffffffffffffffffffffff167f17307eab39ab6107e8899845ad3d59bd9653f200f220920489ca2b5937696c31836040516112989190611d28565b60405180910390a3505050565b600073ffffffffffffffffffffffffffffffffffffffff168473ffffffffffffffffffffffffffffffffffffffff161415611315576040517f08c379a000000000000000000000000000000000000000000000000000000000815260040161130c90612b62565b60405180910390fd5b600061131f610bc0565b905061133f81878761133088611744565b61133988611744565b876117be565b600080600086815260200190815260200160002060008873ffffffffffffffffffffffffffffffffffffffff1673ffffffffffffffffffffffffffffffffffffffff168152602001908152602001600020549050838110156113d6576040517f08c379a00000000000000000000000000000000000000000000000000000000081526004016113cd90612bf4565b60405180910390fd5b83810360008087815260200190815260200160002060008973ffffffffffffffffffffffffffffffffffffffff1673ffffffffffffffffffffffffffffffffffffffff168152602001908152602001600020819055508360008087815260200190815260200160002060008873ffffffffffffffffffffffffffffffffffffffff1673ffffffffffffffffffffffffffffffffffffffff168152602001908152602001600020600082825461148b91906129df565b925050819055508573ffffffffffffffffffffffffffffffffffffffff168773ffffffffffffffffffffffffffffffffffffffff168373ffffffffffffffffffffffffffffffffffffffff167fc3d58168c5ae7397731d063d5bbf3d657854427343f4c083240f7aacaa2d0f628888604051611508929190612a35565b60405180910390a461151e8288888888886117c6565b50505050505050565b600073ffffffffffffffffffffffffffffffffffffffff168373ffffffffffffffffffffffffffffffffffffffff161415611597576040517f08c379a000000000000000000000000000000000000000000000000000000000815260040161158e90612d4f565b60405180910390fd5b60006115a1610bc0565b90506115d1818560006115b387611744565b6115bc87611744565b604051806020016040528060008152506117be565b600080600085815260200190815260200160002060008673ffffffffffffffffffffffffffffffffffffffff1673ffffffffffffffffffffffffffffffffffffffff16815260200190815260200160002054905082811015611668576040517f08c379a000000000000000000000000000000000000000000000000000000000815260040161165f90612de1565b60405180910390fd5b82810360008086815260200190815260200160002060008773ffffffffffffffffffffffffffffffffffffffff1673ffffffffffffffffffffffffffffffffffffffff16815260200190815260200160002081905550600073ffffffffffffffffffffffffffffffffffffffff168573ffffffffffffffffffffffffffffffffffffffff168373ffffffffffffffffffffffffffffffffffffffff167fc3d58168c5ae7397731d063d5bbf3d657854427343f4c083240f7aacaa2d0f628787604051611735929190612a35565b60405180910390a45050505050565b60606000600167ffffffffffffffff81111561176357611762611e83565b5b6040519080825280602002602001820160405280156117915781602001602082028036833780820191505090505b50905082816000815181106117a9576117a8612782565b5b60200260200101818152505080915050919050565b505050505050565b6117e58473ffffffffffffffffffffffffffffffffffffffff16610b43565b15611996578373ffffffffffffffffffffffffffffffffffffffff1663f23a6e6187878686866040518663ffffffff1660e01b815260040161182b959493929190612e56565b6020604051808303816000875af192505050801561186757506040513d601f19601f820116820180604052508101906118649190612ec5565b60015b61190d57611873612eff565b806308c379a014156118d05750611888612f21565b8061189357506118d2565b806040517f08c379a00000000000000000000000000000000000000000000000000000000081526004016118c79190611e09565b60405180910390fd5b505b6040517f08c379a000000000000000000000000000000000000000000000000000000000815260040161190490613029565b60405180910390fd5b63f23a6e6160e01b7bffffffffffffffffffffffffffffffffffffffffffffffffffffffff1916817bffffffffffffffffffffffffffffffffffffffffffffffffffffffff191614611994576040517f08c379a000000000000000000000000000000000000000000000000000000000815260040161198b906130bb565b60405180910390fd5b505b505050505050565b6119bd8473ffffffffffffffffffffffffffffffffffffffff16610b43565b15611b6e578373ffffffffffffffffffffffffffffffffffffffff1663bc197c8187878686866040518663ffffffff1660e01b8152600401611a039594939291906130db565b6020604051808303816000875af1925050508015611a3f57506040513d601f19601f82011682018060405250810190611a3c9190612ec5565b60015b611ae557611a4b612eff565b806308c379a01415611aa85750611a60612f21565b80611a6b5750611aaa565b806040517f08c379a0000000000000000000000000000000000000000000000000000000008152600401611a9f9190611e09565b60405180910390fd5b505b6040517f08c379a0000000000000000000000000000000000000000000000000000000008152600401611adc90613029565b60405180910390fd5b63bc197c8160e01b7bffffffffffffffffffffffffffffffffffffffffffffffffffffffff1916817bffffffffffffffffffffffffffffffffffffffffffffffffffffffff191614611b6c576040517f08c379a0000000000000000000000000000000000000000000000000000000008152600401611b63906130bb565b60405180910390fd5b505b505050505050565b6000604051905090565b600080fd5b600080fd5b600073ffffffffffffffffffffffffffffffffffffffff82169050919050565b6000611bb582611b8a565b9050919050565b611bc581611baa565b8114611bd057600080fd5b50565b600081359050611be281611bbc565b92915050565b6000819050919050565b611bfb81611be8565b8114611c0657600080fd5b50565b600081359050611c1881611bf2565b92915050565b60008060408385031215611c3557611c34611b80565b5b6000611c4385828601611bd3565b9250506020611c5485828601611c09565b9150509250929050565b611c6781611be8565b82525050565b6000602082019050611c826000830184611c5e565b92915050565b60007fffffffff0000000000000000000000000000000000000000000000000000000082169050919050565b611cbd81611c88565b8114611cc857600080fd5b50565b600081359050611cda81611cb4565b92915050565b600060208284031215611cf657611cf5611b80565b5b6000611d0484828501611ccb565b91505092915050565b60008115159050919050565b611d2281611d0d565b82525050565b6000602082019050611d3d6000830184611d19565b92915050565b600060208284031215611d5957611d58611b80565b5b6000611d6784828501611c09565b91505092915050565b600081519050919050565b600082825260208201905092915050565b60005b83811015611daa578082015181840152602081019050611d8f565b83811115611db9576000848401525b50505050565b6000601f19601f8301169050919050565b6000611ddb82611d70565b611de58185611d7b565b9350611df5818560208601611d8c565b611dfe81611dbf565b840191505092915050565b60006020820190508181036000830152611e238184611dd0565b905092915050565b600080600060608486031215611e4457611e43611b80565b5b6000611e5286828701611bd3565b9350506020611e6386828701611c09565b9250506040611e7486828701611c09565b9150509250925092565b600080fd5b7f4e487b7100000000000000000000000000000000000000000000000000000000600052604160045260246000fd5b611ebb82611dbf565b810181811067ffffffffffffffff82111715611eda57611ed9611e83565b5b80604052505050565b6000611eed611b76565b9050611ef98282611eb2565b919050565b600067ffffffffffffffff821115611f1957611f18611e83565b5b602082029050602081019050919050565b600080fd5b6000611f42611f3d84611efe565b611ee3565b90508083825260208201905060208402830185811115611f6557611f64611f2a565b5b835b81811015611f8e5780611f7a8882611c09565b845260208401935050602081019050611f67565b5050509392505050565b600082601f830112611fad57611fac611e7e565b5b8135611fbd848260208601611f2f565b91505092915050565b600080fd5b600067ffffffffffffffff821115611fe657611fe5611e83565b5b611fef82611dbf565b9050602081019050919050565b82818337600083830152505050565b600061201e61201984611fcb565b611ee3565b90508281526020810184848401111561203a57612039611fc6565b5b612045848285611ffc565b509392505050565b600082601f83011261206257612061611e7e565b5b813561207284826020860161200b565b91505092915050565b600080600080600060a0868803121561209757612096611b80565b5b60006120a588828901611bd3565b95505060206120b688828901611bd3565b945050604086013567ffffffffffffffff8111156120d7576120d6611b85565b5b6120e388828901611f98565b935050606086013567ffffffffffffffff81111561210457612103611b85565b5b61211088828901611f98565b925050608086013567ffffffffffffffff81111561213157612130611b85565b5b61213d8882890161204d565b9150509295509295909350565b600067ffffffffffffffff82111561216557612164611e83565b5b602082029050602081019050919050565b60006121896121848461214a565b611ee3565b905080838252602082019050602084028301858111156121ac576121ab611f2a565b5b835b818110156121d557806121c18882611bd3565b8452602084019350506020810190506121ae565b5050509392505050565b600082601f8301126121f4576121f3611e7e565b5b8135612204848260208601612176565b91505092915050565b6000806040838503121561222457612223611b80565b5b600083013567ffffffffffffffff81111561224257612241611b85565b5b61224e858286016121df565b925050602083013567ffffffffffffffff81111561226f5761226e611b85565b5b61227b85828601611f98565b9150509250929050565b600081519050919050565b600082825260208201905092915050565b6000819050602082019050919050565b6122ba81611be8565b82525050565b60006122cc83836122b1565b60208301905092915050565b6000602082019050919050565b60006122f082612285565b6122fa8185612290565b9350612305836122a1565b8060005b8381101561233657815161231d88826122c0565b9750612328836122d8565b925050600181019050612309565b5085935050505092915050565b6000602082019050818103600083015261235d81846122e5565b905092915050565b61236e81611baa565b82525050565b60006020820190506123896000830184612365565b92915050565b61239881611d0d565b81146123a357600080fd5b50565b6000813590506123b58161238f565b92915050565b600080604083850312156123d2576123d1611b80565b5b60006123e085828601611bd3565b92505060206123f1858286016123a6565b9150509250929050565b6000806040838503121561241257612411611b80565b5b600061242085828601611bd3565b925050602061243185828601611bd3565b9150509250929050565b600080600080600060a0868803121561245757612456611b80565b5b600061246588828901611bd3565b955050602061247688828901611bd3565b945050604061248788828901611c09565b935050606061249888828901611c09565b925050608086013567ffffffffffffffff8111156124b9576124b8611b85565b5b6124c58882890161204d565b9150509295509295909350565b6000602082840312156124e8576124e7611b80565b5b60006124f684828501611bd3565b91505092915050565b7f455243313135353a2062616c616e636520717565727920666f7220746865207a60008201527f65726f2061646472657373000000000000000000000000000000000000000000602082015250565b600061255b602b83611d7b565b9150612566826124ff565b604082019050919050565b6000602082019050818103600083015261258a8161254e565b9050919050565b7f4e487b7100000000000000000000000000000000000000000000000000000000600052602260045260246000fd5b600060028204905060018216806125d857607f821691505b602082108114156125ec576125eb612591565b5b50919050565b7f4f776e61626c653a2063616c6c6572206973206e6f7420746865206f776e6572600082015250565b6000612628602083611d7b565b9150612633826125f2565b602082019050919050565b600060208201905081810360008301526126578161261b565b9050919050565b7f455243313135353a207472616e736665722063616c6c6572206973206e6f742060008201527f6f776e6572206e6f7220617070726f7665640000000000000000000000000000602082015250565b60006126ba603283611d7b565b91506126c58261265e565b604082019050919050565b600060208201905081810360008301526126e9816126ad565b9050919050565b7f455243313135353a206163636f756e747320616e6420696473206c656e67746860008201527f206d69736d617463680000000000000000000000000000000000000000000000602082015250565b600061274c602983611d7b565b9150612757826126f0565b604082019050919050565b6000602082019050818103600083015261277b8161273f565b9050919050565b7f4e487b7100000000000000000000000000000000000000000000000000000000600052603260045260246000fd5b7f4e487b7100000000000000000000000000000000000000000000000000000000600052601160045260246000fd5b60006127eb82611be8565b91507fffffffffffffffffffffffffffffffffffffffffffffffffffffffffffffffff82141561281e5761281d6127b1565b5b600182019050919050565b7f455243313135353a2063616c6c6572206973206e6f74206f776e6572206e6f7260008201527f20617070726f7665640000000000000000000000000000000000000000000000602082015250565b6000612885602983611d7b565b915061289082612829565b604082019050919050565b600060208201905081810360008301526128b481612878565b9050919050565b7f4f776e61626c653a206e6577206f776e657220697320746865207a65726f206160008201527f6464726573730000000000000000000000000000000000000000000000000000602082015250565b6000612917602683611d7b565b9150612922826128bb565b604082019050919050565b600060208201905081810360008301526129468161290a565b9050919050565b7f455243313135353a206d696e7420746f20746865207a65726f2061646472657360008201527f7300000000000000000000000000000000000000000000000000000000000000602082015250565b60006129a9602183611d7b565b91506129b48261294d565b604082019050919050565b600060208201905081810360008301526129d88161299c565b9050919050565b60006129ea82611be8565b91506129f583611be8565b9250827fffffffffffffffffffffffffffffffffffffffffffffffffffffffffffffffff03821115612a2a57612a296127b1565b5b828201905092915050565b6000604082019050612a4a6000830185611c5e565b612a576020830184611c5e565b9392505050565b7f455243313135353a2069647320616e6420616d6f756e7473206c656e6774682060008201527f6d69736d61746368000000000000000000000000000000000000000000000000602082015250565b6000612aba602883611d7b565b9150612ac582612a5e565b604082019050919050565b60006020820190508181036000830152612ae981612aad565b9050919050565b7f455243313135353a207472616e7366657220746f20746865207a65726f20616460008201527f6472657373000000000000000000000000000000000000000000000000000000602082015250565b6000612b4c602583611d7b565b9150612b5782612af0565b604082019050919050565b60006020820190508181036000830152612b7b81612b3f565b9050919050565b7f455243313135353a20696e73756666696369656e742062616c616e636520666f60008201527f72207472616e7366657200000000000000000000000000000000000000000000602082015250565b6000612bde602a83611d7b565b9150612be982612b82565b604082019050919050565b60006020820190508181036000830152612c0d81612bd1565b9050919050565b60006040820190508181036000830152612c2e81856122e5565b90508181036020830152612c4281846122e5565b90509392505050565b7f455243313135353a2073657474696e6720617070726f76616c2073746174757360008201527f20666f722073656c660000000000000000000000000000000000000000000000602082015250565b6000612ca7602983611d7b565b9150612cb282612c4b565b604082019050919050565b60006020820190508181036000830152612cd681612c9a565b9050919050565b7f455243313135353a206275726e2066726f6d20746865207a65726f206164647260008201527f6573730000000000000000000000000000000000000000000000000000000000602082015250565b6000612d39602383611d7b565b9150612d4482612cdd565b604082019050919050565b60006020820190508181036000830152612d6881612d2c565b9050919050565b7f455243313135353a206275726e20616d6f756e7420657863656564732062616c60008201527f616e636500000000000000000000000000000000000000000000000000000000602082015250565b6000612dcb602483611d7b565b9150612dd682612d6f565b604082019050919050565b60006020820190508181036000830152612dfa81612dbe565b9050919050565b600081519050919050565b600082825260208201905092915050565b6000612e2882612e01565b612e328185612e0c565b9350612e42818560208601611d8c565b612e4b81611dbf565b840191505092915050565b600060a082019050612e6b6000830188612365565b612e786020830187612365565b612e856040830186611c5e565b612e926060830185611c5e565b8181036080830152612ea48184612e1d565b90509695505050505050565b600081519050612ebf81611cb4565b92915050565b600060208284031215612edb57612eda611b80565b5b6000612ee984828501612eb0565b91505092915050565b60008160e01c9050919050565b600060033d1115612f1e5760046000803e612f1b600051612ef2565b90505b90565b600060443d1015612f3157612fb4565b612f39611b76565b60043d036004823e80513d602482011167ffffffffffffffff82111715612f61575050612fb4565b808201805167ffffffffffffffff811115612f7f5750505050612fb4565b80602083010160043d038501811115612f9c575050505050612fb4565b612fab82602001850186611eb2565b82955050505050505b90565b7f455243313135353a207472616e7366657220746f206e6f6e204552433131353560008201527f526563656976657220696d706c656d656e746572000000000000000000000000602082015250565b6000613013603483611d7b565b915061301e82612fb7565b604082019050919050565b6000602082019050818103600083015261304281613006565b9050919050565b7f455243313135353a204552433131353552656365697665722072656a6563746560008201527f6420746f6b656e73000000000000000000000000000000000000000000000000602082015250565b60006130a5602883611d7b565b91506130b082613049565b604082019050919050565b600060208201905081810360008301526130d481613098565b9050919050565b600060a0820190506130f06000830188612365565b6130fd6020830187612365565b818103604083015261310f81866122e5565b9050818103606083015261312381856122e5565b905081810360808301526131378184612e1d565b9050969550505050505056fea26469706673582212208b9ff88d9ba4f7c610b98e0128377b1aff2b1f37ce1fc4d15e50d80b0a4f645464736f6c634300080a003368747470733a2f2f6a6d616b6764767464786c732e7573656d6f72616c69732e636f6d2f7b69647d2e6a736f6e",
  "immutableReferences": {},
  "source": "// SPDX-License-Identifier: MIT\npragma solidity ^0.8.0;\n\nimport \"../node_modules/@openzeppelin/contracts/token/ERC1155/ERC1155.sol\";\nimport \"../node_modules/@openzeppelin/contracts/access/Ownable.sol\";\n\ncontract CuddleToys is ERC1155, Ownable {\n    uint256 public constant PIEP_PIEP = 0;\n    uint256 public constant MUEMMIE_WHITE_BIG = 1;\n    uint256 public constant TOAST = 2;\n\n    constructor() ERC1155(\"https://jmakgdvtdxls.usemoralis.com/{id}.json\") {\n        _mint(msg.sender, PIEP_PIEP, 1, \"\");\n        _mint(msg.sender, MUEMMIE_WHITE_BIG, 1, \"\");\n        _mint(msg.sender, TOAST, 1, \"\");\n    }\n\n    function mint(\n        address account,\n        uint256 id,\n        uint256 amount\n    ) public onlyOwner {\n        _mint(account, id, amount, \"\");\n    }\n\n    function burn(\n        address account,\n        uint256 id,\n        uint256 amount\n    ) public onlyOwner {\n        _burn(account, id, amount);\n    }\n}\n",
  "sourcePath": "C:\\Code\\slacktime\\ethereum\\nft\\contracts\\CuddleToys.sol",
  "compiler": {
    "name": "solc",
    "version": "0.8.10+commit.fc410830.Emscripten.clang"
  },
  "schemaVersion": "3.4.4",
  "updatedAt": "2022-01-04T14:30:29.138Z",
  "networkType": "ethereum",
  "devdoc": {
    "kind": "dev",
    "methods": {
      "balanceOf(address,uint256)": {
        "details": "See {IERC1155-balanceOf}. Requirements: - `account` cannot be the zero address."
      },
      "balanceOfBatch(address[],uint256[])": {
        "details": "See {IERC1155-balanceOfBatch}. Requirements: - `accounts` and `ids` must have the same length."
      },
      "isApprovedForAll(address,address)": {
        "details": "See {IERC1155-isApprovedForAll}."
      },
      "owner()": {
        "details": "Returns the address of the current owner."
      },
      "renounceOwnership()": {
        "details": "Leaves the contract without owner. It will not be possible to call `onlyOwner` functions anymore. Can only be called by the current owner. NOTE: Renouncing ownership will leave the contract without an owner, thereby removing any functionality that is only available to the owner."
      },
      "safeBatchTransferFrom(address,address,uint256[],uint256[],bytes)": {
        "details": "See {IERC1155-safeBatchTransferFrom}."
      },
      "safeTransferFrom(address,address,uint256,uint256,bytes)": {
        "details": "See {IERC1155-safeTransferFrom}."
      },
      "setApprovalForAll(address,bool)": {
        "details": "See {IERC1155-setApprovalForAll}."
      },
      "supportsInterface(bytes4)": {
        "details": "See {IERC165-supportsInterface}."
      },
      "transferOwnership(address)": {
        "details": "Transfers ownership of the contract to a new account (`newOwner`). Can only be called by the current owner."
      },
      "uri(uint256)": {
        "details": "See {IERC1155MetadataURI-uri}. This implementation returns the same URI for *all* token types. It relies on the token type ID substitution mechanism https://eips.ethereum.org/EIPS/eip-1155#metadata[defined in the EIP]. Clients calling this function must replace the `\\{id\\}` substring with the actual token type ID."
      }
    },
    "version": 1
  },
  "userdoc": {
    "kind": "user",
    "methods": {},
    "version": 1
  }
}