{
  "contractName": "Election",
  "abi": [
    {
      "inputs": [],
      "stateMutability": "nonpayable",
      "type": "constructor"
    },
    {
      "anonymous": false,
      "inputs": [],
      "name": "resetEvent",
      "type": "event"
    },
    {
      "anonymous": false,
      "inputs": [
        {
          "indexed": true,
          "internalType": "uint256",
          "name": "candidateId",
          "type": "uint256"
        }
      ],
      "name": "votedEvent",
      "type": "event"
    },
    {
      "inputs": [
        {
          "internalType": "uint256",
          "name": "",
          "type": "uint256"
        }
      ],
      "name": "candidates",
      "outputs": [
        {
          "internalType": "uint256",
          "name": "id",
          "type": "uint256"
        },
        {
          "internalType": "string",
          "name": "name",
          "type": "string"
        },
        {
          "internalType": "uint256",
          "name": "voteCount",
          "type": "uint256"
        }
      ],
      "stateMutability": "view",
      "type": "function",
      "constant": true
    },
    {
      "inputs": [],
      "name": "candidatesCount",
      "outputs": [
        {
          "internalType": "uint256",
          "name": "",
          "type": "uint256"
        }
      ],
      "stateMutability": "view",
      "type": "function",
      "constant": true
    },
    {
      "inputs": [
        {
          "internalType": "address",
          "name": "",
          "type": "address"
        }
      ],
      "name": "voters",
      "outputs": [
        {
          "internalType": "bool",
          "name": "",
          "type": "bool"
        }
      ],
      "stateMutability": "view",
      "type": "function",
      "constant": true
    },
    {
      "inputs": [
        {
          "internalType": "uint256",
          "name": "candidateId",
          "type": "uint256"
        }
      ],
      "name": "vote",
      "outputs": [],
      "stateMutability": "nonpayable",
      "type": "function"
    },
    {
      "inputs": [],
      "name": "resetVotes",
      "outputs": [],
      "stateMutability": "nonpayable",
      "type": "function"
    }
  ],
  "bytecode": "0x60806040523480156200001157600080fd5b50620000586040518060400160405280600c81526020017f446f6e616c64205472756d700000000000000000000000000000000000000000815250620000a460201b60201c565b6200009e6040518060400160405280600981526020017f4a6f6520426964656e0000000000000000000000000000000000000000000000815250620000a460201b60201c565b620002c6565b60036000815480929190620000b99062000213565b9190505550604051806060016040528060035481526020018281526020016000815250600260006003548152602001908152602001600020600082015181600001556020820151816001019080519060200190620001199291906200012a565b506040820151816002015590505050565b828054620001389062000290565b90600052602060002090601f0160209004810192826200015c5760008555620001a8565b82601f106200017757805160ff1916838001178555620001a8565b82800160010185558215620001a8579182015b82811115620001a75782518255916020019190600101906200018a565b5b509050620001b79190620001bb565b5090565b5b80821115620001d6576000816000905550600101620001bc565b5090565b7f4e487b7100000000000000000000000000000000000000000000000000000000600052601160045260246000fd5b6000819050919050565b6000620002208262000209565b91507fffffffffffffffffffffffffffffffffffffffffffffffffffffffffffffffff821415620002565762000255620001da565b5b600182019050919050565b7f4e487b7100000000000000000000000000000000000000000000000000000000600052602260045260246000fd5b60006002820490506001821680620002a957607f821691505b60208210811415620002c057620002bf62000261565b5b50919050565b61083380620002d66000396000f3fe608060405234801561001057600080fd5b50600436106100575760003560e01c80630121b93f1461005c5780632d35a8a2146100785780633477ee2e14610096578063a3ec138d146100c8578063b9830ff1146100f8575b600080fd5b61007660048036038101906100719190610506565b610102565b005b610080610289565b60405161008d9190610542565b60405180910390f35b6100b060048036038101906100ab9190610506565b61028f565b6040516100bf939291906105f6565b60405180910390f35b6100e260048036038101906100dd9190610692565b610341565b6040516100ef91906106da565b60405180910390f35b610100610361565b005b6000803373ffffffffffffffffffffffffffffffffffffffff1673ffffffffffffffffffffffffffffffffffffffff16815260200190815260200160002060009054906101000a900460ff161561015857600080fd5b60008111801561016a57506003548111155b61017357600080fd5b60016000803373ffffffffffffffffffffffffffffffffffffffff1673ffffffffffffffffffffffffffffffffffffffff16815260200190815260200160002060006101000a81548160ff0219169083151502179055506002600082815260200190815260200160002060020160008154809291906101f190610724565b91905055506001339080600181540180825580915050600190039060005260206000200160009091909190916101000a81548173ffffffffffffffffffffffffffffffffffffffff021916908373ffffffffffffffffffffffffffffffffffffffff160217905550807ffff3c900d938d21d0990d786e819f29b8d05c1ef587b462b939609625b684b1660405160405180910390a250565b60035481565b60026020528060005260406000206000915090508060000154908060010180546102b89061079c565b80601f01602080910402602001604051908101604052809291908181526020018280546102e49061079c565b80156103315780601f1061030657610100808354040283529160200191610331565b820191906000526020600020905b81548152906001019060200180831161031457829003601f168201915b5050505050908060020154905083565b60006020528060005260406000206000915054906101000a900460ff1681565b6000600190505b60035481116103a05760006002600083815260200190815260200160002060020181905550808061039890610724565b915050610368565b5060005b60018054905081101561045057600080600183815481106103c8576103c76107ce565b5b9060005260206000200160009054906101000a900473ffffffffffffffffffffffffffffffffffffffff1673ffffffffffffffffffffffffffffffffffffffff1673ffffffffffffffffffffffffffffffffffffffff16815260200190815260200160002060006101000a81549060ff0219169055808061044890610724565b9150506103a4565b506001600061045f919061048d565b7fde63ea00669770dea2f85e87d5bb89633a75dc9e6e099dd332f0a5666bed9e0260405160405180910390a1565b50805460008255906000526020600020908101906104ab91906104ae565b50565b5b808211156104c75760008160009055506001016104af565b5090565b600080fd5b6000819050919050565b6104e3816104d0565b81146104ee57600080fd5b50565b600081359050610500816104da565b92915050565b60006020828403121561051c5761051b6104cb565b5b600061052a848285016104f1565b91505092915050565b61053c816104d0565b82525050565b60006020820190506105576000830184610533565b92915050565b600081519050919050565b600082825260208201905092915050565b60005b8381101561059757808201518184015260208101905061057c565b838111156105a6576000848401525b50505050565b6000601f19601f8301169050919050565b60006105c88261055d565b6105d28185610568565b93506105e2818560208601610579565b6105eb816105ac565b840191505092915050565b600060608201905061060b6000830186610533565b818103602083015261061d81856105bd565b905061062c6040830184610533565b949350505050565b600073ffffffffffffffffffffffffffffffffffffffff82169050919050565b600061065f82610634565b9050919050565b61066f81610654565b811461067a57600080fd5b50565b60008135905061068c81610666565b92915050565b6000602082840312156106a8576106a76104cb565b5b60006106b68482850161067d565b91505092915050565b60008115159050919050565b6106d4816106bf565b82525050565b60006020820190506106ef60008301846106cb565b92915050565b7f4e487b7100000000000000000000000000000000000000000000000000000000600052601160045260246000fd5b600061072f826104d0565b91507fffffffffffffffffffffffffffffffffffffffffffffffffffffffffffffffff821415610762576107616106f5565b5b600182019050919050565b7f4e487b7100000000000000000000000000000000000000000000000000000000600052602260045260246000fd5b600060028204905060018216806107b457607f821691505b602082108114156107c8576107c761076d565b5b50919050565b7f4e487b7100000000000000000000000000000000000000000000000000000000600052603260045260246000fdfea26469706673582212204efda1a1b6bc140ac05c5557caf1e17c78da3d88845837c5c788d3f6f92967c464736f6c634300080a0033",
  "immutableReferences": {},
  "source": "// SPDX-License-Identifier: MIT\npragma solidity >=0.4.22 <0.9.0;\n\ncontract Election {\n    // Model a Candidate\n    struct Candidate {\n        uint256 id;\n        string name;\n        uint256 voteCount;\n    }\n\n    // Store accounts that have voted\n    mapping(address => bool) public voters;\n    address[] voterAddresses;\n\n    // Store Candidates\n    // Fetch Candidate\n    mapping(uint256 => Candidate) public candidates;\n\n    // Store Candidates Count\n    uint256 public candidatesCount;\n\n    // voted event\n    event votedEvent(uint256 indexed candidateId);\n\n    // reset event\n    event resetEvent();\n\n    constructor() {\n        addCandidate(\"Donald Trump\");\n        addCandidate(\"Joe Biden\");\n    }\n\n    function addCandidate(string memory name) private {\n        candidatesCount++;\n        candidates[candidatesCount] = Candidate(candidatesCount, name, 0);\n    }\n\n    function vote(uint256 candidateId) public {\n        // require that they haven't voted before\n        require(!voters[msg.sender]);\n\n        // require a valid candidate\n        require(candidateId > 0 && candidateId <= candidatesCount);\n\n        // record that voter has voted\n        voters[msg.sender] = true;\n\n        // update candidate vote Count\n        candidates[candidateId].voteCount++;\n        voterAddresses.push(msg.sender);\n\n        // trigger voted event\n        emit votedEvent(candidateId);\n    }\n\n    function resetVotes() public {\n        for (uint256 index = 1; index <= candidatesCount; index++) {\n            candidates[index].voteCount = 0;\n        }\n\n        for (uint256 index = 0; index < voterAddresses.length; index++) {\n            delete voters[voterAddresses[index]];\n        }\n\n        delete voterAddresses;\n\n        emit resetEvent();\n    }\n}\n",
  "sourcePath": "C:\\Code\\slacktime\\ethereum\\contracts\\Election.sol",
  "compiler": {
    "name": "solc",
    "version": "0.8.10+commit.fc410830.Emscripten.clang"
  },
  "schemaVersion": "3.4.4",
  "updatedAt": "2022-01-03T11:24:08.186Z",
  "networkType": "ethereum",
  "devdoc": {
    "kind": "dev",
    "methods": {},
    "version": 1
  },
  "userdoc": {
    "kind": "user",
    "methods": {},
    "version": 1
  }
}